:06000000021766021FE575
:03000B00021FECE5
:030013000220F5D3
:03001B000220F6CA
:0300230002233184
:03002B00022102AD
:030033000222FFA7
:03003B0002241B81
:030043000227FE93
:0300530002200682
:03005B0002280771
:101766007580FF43AF8175817F75B70053D7F0430E
:10177600D708E5D730E6FB438780C2AFD2C075C035
:1017860052E4787FF6D8FD90000079007806E4F000
:10179600A3D9FCD8FA75170175F832758921758DAC
:1017A60000758B00758C00758A00758805759872B2
:1017B60075C80075CDFF75CCFF75A10075A60175BE
:1017C600A10375E84875B81875A96775A81A122493
:0717D6002F75FD0302B17342
:101F380075F002D5F0FD2275F004D5F0FD2275F09C
:101F480000D5F0FD228570B1856FB222C2AFE52FB2
:101F580054C06006E52F543F8004E52F4440F580C7
:101F6800F52FD2AF22C2AFC216E52FD2E2121F461A
:101F7800C2E0F580F52FC218D2AF22C2AFE52FC25A
:101F8800E0C2E1C217C2E2121F46D21680E4C2AF15
:101F9800E52FC2E0D2E1D217C2E2121F46D2168064
:101FA800D1C2AFC21EE52FD2E5121F46C2E3F580AB
:101FB800F52FC220D2AF22C2AFE52FC2E3C2E4C2DE
:101FC8001FC2E5121F46D21E80E4C2AFE52FC2E34E
:101FD800D2E4D21FC2E5121F46D21E80D1C2A80584
:101FE80035C28932C2AFC28CB237203706C289D215
:101FF800A88008758AD1758C22D28CD2AF32C0D015
:10200800C0E0C083C082D2D4C2D3B2012001090289
:1020180020EC75343CC20622201507C212C2A70262
:10202800208AA212B013500AD213758B80758D00C6
:10203800801630134DDE4B855283855182E49370B0
:102048001B301404C214C212855383855482E4934E
:10205800201209C28EC213C2A702208AFEA3E493EB
:10206800F54FA3E493F550454F700BC28EA38583BB
:1020780052858251800CD28E80F3C2A9751601D286
:10208800A9220530DF2D7F08D236B202300204D2F1
:10209800038020D232D2049001CFE02401F09001D5
:1020A800CEE03400F09001CDE03400F09001CCE0B7
:1020B8003400F0D5332E7533400531D205200008A1
:1020C800C2AD90018CE537F075350075370075CBDA
:1020D800F975CADBD2CAD2ADC200D5340775343C13
:1020E8000532D206D082D083D0E0D0D03232D51F8C
:1020F8000885501FB2A7854F8B32C0D0C0E0C0F012
:10210800C083C08220CF030222EFC2CFC2AF852F87
:10211800F0D55866E557700375570185575830163E
:1021280059B218A21892F040519001E2E02401F04F
:102138009001E1E03400F0301A0CD5560985555667
:10214800E5576002155730191A9001E4E024FFF0B2
:102158009001E3E034FFF0C0F0F5F0A3E045F0D0E3
:10216800F0601320F109A2B5921C201C0D8007A273
:10217800B4921D201D04C216D2F2D55939755904DE
:10218800301E33B220A22092F3402B9001EAE024C3
:1021980001F09001E9E03400F030241C9001ECE0FB
:1021A80024FFF09001EBE034FFF0C0F0F5F0A3E07D
:1021B80045F0D0F06057807120F45920B726755C3F
:1021C80005D55A65755A013021089001DA74F9F07D
:1021D80080539001EEE02401F09001EDE03400F02E
:1021E800D222803520230B855A5D9001EEE0F55E02
:1021F800D223D55C34755C01755A01C221C0F090B8
:1022080001EDE0F5F0A3E045F0D0F0601C755B014E
:10221800C222800520B6CD80A5D55B0D3022069060
:1022280001DA74FAF0C21ED2F585F08085F02FD25B
:10223800AF1536E53660030222EF753608300D2CEF
:10224800200E1EC2A6E5397005753928801ED539BD
:102258001B300F08D2A6C20FC20D8010753964D288
:102268000ED2A6D53906C2A6C20ED20F300C353012
:10227800B215E538B47800400A900190E538F0D2FC
:102288001080480538804F200B1AE5386048E5383B
:10229800B4500040E4900190E538F0D21075380051
:1022A800D20B803230B207C20B7538008028E5386F
:1022B800B41400401F753800200B04D20C8017900E
:1022C800018E7401F090018F740AF0753800C20B0A
:1022D800C20C80020538300A0720A40BC20A800706
:1022E80030A404D20A053730CE02C2CED082D083C1
:1022F800D0F0D0E0D0D03230DF1775600085DB61D8
:1023080085DA6285D963C2DF30DB04C2DBD22DD225
:102318002A75640085DD6585DC6685DE67C2DE308A
:10232800DA04C2DAD22ED22B32C0D0C0E0C083C0C9
:012338008222
:10233900C2D4D2D3209822309916C299EA6B70047C
:10234900C24080097583068A82E0F5990A209809B6
:10235900D082D083D0E0D0D032AE99C298ED046C4F
:102369007005D2420223407583078D82EEF00DD2AB
:1023790041022340C2ACE50B04650A601775830668
:10238900850B82EF204004F5998003F0050BD240BC
:10239900D2ACC322D2ACD322C2AC750C00630D00FF
:1023A900C241D2AC22C2AC758307850C82E0FF051D
:1023B9000CE50C650D7002C241D2ACEF2212237DEF
:1023C90040FB22C083C082C0F0E5F054F0C4243041
:1023D900FF1223C6D0F0E5F0540F2430FF1223C6B4
:1023E900D082D08322C083C0827F0D1223C67F0A88
:1023F9001223C6D082D0832290053BE090052DF0B0
:1024090090053CE090052EF02212237D30430240D6
:10241900F82220FF0132C2FF3275F000A2B4400554
:10242900D5F0F9D22922D2EB30ED05C2ED121F3FCA
:10243900C2EFD2EE121F3FD2ED121F3FD2EF22D2CE
:10244900EBD2EFD2EE121F3FD2ED121F3FC2EF12B5
:102459001F3FC2ED121F3F22D2EE7B08C2ED121FB1
:102469003F3392EF121F3FD2ED121F3FDBEEC2ED59
:10247900121F3FD2EFC2EE121F3FD2ED121F3FA231
:10248900EC121F3FC2ED85F0F085F0F0D2EE121F7D
:102499003F5002D22822C2EE7B08121F3F121F3F73
:1024A900D2ED121F3F121F3FA2EC33A2D5C2EDDBC2
:1024B900E992EFD2EE121F3F121F3FD2ED121F3FDA
:1024C900121F3FC2ED121F3FD2EF22EF234CFFC272
:1024D90028C22912244820290BEF1224612028043C
:1024E900ED1224612290020DE58225F0F582E58343
:1024F9003400F58322900201E58225F0F582E58317
:102509003400F58322900207E58225F0F582E58300
:102519003400F583221224EEE070051224FEEFF058
:10252900221224EEE070051224FEEFF0221224EEAE
:10253900E0700A1224FEEFF012250EEDF0221224AB
:10254900EEE0700A30290244013028024402F022E8
:10255900D2EB7C907DAC1224D475F0001225362084
:102569002916202813740212246120280B7DEE12EB
:1025790024D875F00012253612242F75F000122583
:102589004722D2EB7C907DAA1224D475F000122543
:10259900362029E42028E112244820291B74914F70
:1025A900FF12246175F00012251E20280BC2D512D6
:1025B900249FFFD2D512249F12242F75F0001225D3
:1025C90047228D007DA1D2EB7C901224D475F000B6
:1025D90012253620290F20280CE81224612028050D
:1025E900740012246112242F75F000122547228DE0
:1025F900007DA280D1D2EB8D008F057FD01224D827
:1026090075F001122536202907202804E8122461D3
:1026190012242F75F00112254722D2EB8D008F0568
:102629007FD01224D875F0011225362029372028A9
:102639003412244874D1FF880512246175F00112FF
:102649002536202820E8601D6401FA600D90035C9E
:1026590018C2D512249FF0A3D8F7D2D512249FCA45
:102669006003CAF0CA8A0712242F75F001122547A0
:1026790022D2EB8F05AF5F1224D875F002122536EE
:1026890012242F75F00212254722D2EBC228C22943
:10269900122448E55F4401FF7D0012246175F002B0
:1026A900122536202806D2D512249FFF12242F7511
:1026B900F00212254722D2EB8D008F05AF5F12245D
:1026C900D875F00312253620290E20280BEC122488
:1026D90061202804E812246112242F75F0031225C1
:1026E9004722D2EBC228C22912244820291D74810D
:1026F900FF7D0012246175F00512253620280C1281
:10270900249F900369F0D320E501C322D2EB7F8097
:102719007DAC1224D875F00512253612242F75F0D8
:102729000512254722D2D51226EB75F0057D011237
:02273900253643
:10273B00202939202836403412242FC2D51226EBFB
:10274B0075F0057D0212253620292120281E122422
:10275B009F90036AF012249F90036BF012249F90BA
:10276B00036CF0D2D512249F90036DF012242F75B9
:10277B00F00512254722D2EB8F057F801224D875E6
:10278B00F0051225367E007F0020295D20285A1285
:10279B00242F7805D2D51226EB75F0057D03122573
:1027AB00367E007F0020294120283E501612242F10
:1027BB00D8E27EFF7FFFD229D22875F0057D041267
:1027CB0025472212242FC2D51226EB75F0057D0565
:1027DB001225367E007F0020290F20280CC2D5122F
:1027EB00249FFED2D512249FFF12242F75F00512C1
:1027FB00254722C0D0C0E0D0E0D0D032C0D0C0E05E
:10280B00D0E0D0D0327D057C047847800E7D047CEF
:10281B0003784880067D027C01784A754200754337
:10282B00007544007545007546007B08E633F6EDF0
:10283B00FA7942E737D4F709DAF9DBF008DCEB2257
:10284B0012291790019280061229269001A2784432
:10285B005004742DF0A3C2D5C3122935D2D5D3128F
:10286B00293512294F22122917900192800612291D
:10287B00269001A278455004742DF0A3C2D5C31243
:10288B00293512293512293512294F221229179071
:10289B00019280061229269001A278465004742DCD
:1028AB00F0A3D2D5D3122935122935122935122985
:1028BB003512294F221229179001928006122926D0
:1028CB009001A278465004742DF0A3C312295CD357
:1028DB00122941742EF0A3C2D512293512293512B3
:1028EB00293512294F22122917900192800612299D
:1028FB00269001A27846C2D5C3122935D2D5D31260
:10290B00293512293512293512294F2274029001CB
:10291B007AF0A37401F0A37492F022740290017DFB
:10292B00F0A37401F0A374A2F02212295C30D50637
:10293B00742EF0A3C2D5E6540F400260052430F08C
:10294B00A3D3182212295CE6540F2430F0A3E4F031
:10295B0022E654F040026006C42430F0A3D322C216
:10296B00AFD2C075C052D2AF229005FD7415F0A343
:10297B007405F0A37441F0229005FDC3E06415705B
:10298B000DA3E064057007A3E06441700122D3221C
:10299B00020000202A2A2A2A2A2041444E505F484E
:1029AB004D49202A2A2A2A2A0020C7C0CE20C1CC72
:1029BB00D6207777772E626D632E62790020CFCE8B
:1029CB002025325F253300204E6F20253100423108
:1029DB0030005631322E323032332E30352E3137E5
:0129EB0000EB
:040006001225FE229F
:04000E001226232271
:0400160012267A2212
:04001E0012269322F1
:040026001226BF22BD
:04002E0012278122F2
:0400360012573A2201
:04003E0012287122F1
:04004F0012287922D8
:1017DD0090017A1202A4ED900174F0A3ECF0A3E84D
:0217ED00F022E8
:1036BE0090059B1201D690059B1201CA90057612B9
:1036CE0001D690057612018F7CBD7D377E067FB5C3
:1036DE001216D7BF011A90057612018F7CBD7D3769
:1036EE007E067F351216D7BFFF06E4FFFEFCFD22D5
:0736FE009005761201CA22BB
:103705009005971201D690059712018F7B057A2EA9
:0C37150079C712180074FC2581F5812290
:103721009005971201D690059712018F7B057A2E8D
:0C37310079CB12180074FC2581F5812270
:10373D00900000A982AA8374029001D0F0A3EAF050
:04374D00A3E9F022DA
:10375100900001A982AA8374029001D0F0A3EAF03B
:04376100A3E9F022C6
:10376500900003A982AA8374029001D0F0A3EAF025
:04377500A3E9F022B2
:10377900900007A982AA8374029001D0F0A3EAF00D
:04378900A3E9F0229E
:10378D0090000BA982AA8374029001D0F0A3EAF0F5
:04379D00A3E9F0228A
:0A17EF00E54B5403F5C7854CC622F4
:1037A1001217EFC2AF75B90F75B981D2AF054CE5EC
:0837B1004C7002054BAFBC2275
:1037B9001217EFC2AF75B90F75B901D2AF9001D029
:1037C900120046E004F09001D17003E004F0E5BC7A
:1037D90012011D9001D0120046E004F09001D17051
:1037E90003E004F0E5BD12011D9001D0120046E08E
:1037F90004F09001D17003E004F0E5BE12011D90C0
:1038090001D0120046E004F09001D17003E004F009
:0E381900E5BF12011D054CE54C7002054B2267
:083827001217EFE490057AF09E
:10382F009001D0120046E004F09001D17003E00443
:10383F00F0120164F5BC9001D0120046E004F09044
:10384F0001D17003E004F0120164F5BD9001D012B4
:10385F000046E004F09001D17003E004F01201641F
:10386F00F5BE9001D0120046E004F09001D1700334
:10387F00E004F0120164F5BFC2AF75B90F75B90559
:10388F00D2AFC2AF75B90275B904D2AFE5B9700A3C
:10389F00054CE54C7002054BC32290057AE004F00D
:0A38AF00B40300500302382FD322A7
:1038B9001217EFC2AF75B90F75B901D2AFEF600A30
:0A38C90014600E1460121460162241
:1038D300E5BC900000F022E5BD900000F022E5BEBB
:0C38E300900000F022E5BF900000F022F1
:1038EF001217EFC2AF75B90F75B901D2AFE5BC9022
:1038FF00057BF0E5BD90057CF0E5BE90057DF0E51C
:0A390F00BF90057EF0E490057FF004
:1039190090057BE0F5BC90057CE0F5BD90057DE068
:10392900F5BE90057EE0F5BFEF600B1460101460E2
:063939001514601A801E47
:10393F00900000E0F5BC8016900000E0F5BD800E11
:10394F00900000E0F5BE8006900000E0F5BFC2AF2A
:10395F0075B90F75B905D2AFC2AF75B90275B90494
:10396F00D2AFE5B97002C32290057FE004F0B40333
:05397F00004097D32277
:103984001237511217EFC2AF75B90F75B901D2AF23
:07399400EF600414602E2215
:10399B009001D0120046E004F09001D17003E004D6
:1039AB00F0E5BC12011D9001D0120046E004F0902E
:1039BB0001D17003E004F0E5BD12011D229001D08E
:1039CB00120046E004F09001D17003E004F0E5BE74
:1039DB0012011D9001D0120046E004F09001D1704D
:0A39EB0003E004F0E5BF12011D2205
:1039F5001237511217EFC2AF75B90F75B901D2AFB2
:103A0500E5BC900580F0E5BD900581F0E5BE90052B
:0D3A150082F0E5BF900583F0E4900584F099
:103A2200900580E0F5BC900581E0F5BD900582E04F
:103A3200F5BE900583E0F5BFEF6005146030805A53
:103A42009001D0120046E004F09001D17003E0042E
:103A5200F0120164F5BC9001D0120046E004F0902F
:103A620001D17003E004F0120164F5BD802C9001D5
:103A7200D0120046E004F09001D17003E004F0128D
:103A82000164F5BE9001D0120046E004F09001D12D
:103A92007003E004F0120164F5BFC2AF75B90F758F
:103AA200B905D2AFC2AF75B90275B904D2AFE5B9E3
:103AB2007002C322900584E004F0B40300500302B4
:043AC2003A22D322AF
:0717F9001237651237B92217
:073AC60012376512382722B8
:073ACD001237791237B9220C
:073AD4001237791238272296
:0A3ADB0012378D1237B91237B922E5
:103AE50012378D1238275002D3221238275002D3AD
:033AF50022C322C7
:103AF8009001D3120046E004F09001D47003E00472
:103B0800F0120164900585F09001D3120046E0049C
:103B1800F09001D47003E004F0120164900586F07F
:103B28009001D3120046E004F09001D47003E00441
:103B3800F0120164900587F09001D312004612013B
:103B480064900588F0900585E0B4FF1D900586E037
:103B5800B4FF16900587E0B4FF0F900588E0B4FF26
:103B6800087401900585F08049900585E0B47F1BB5
:103B7800900586E0B48014900587E0700E90058863
:103B8800E070087402900585F08027900585E0B400
:103B9800FF1B900586E0B48014900587E0700E90B6
:103BA8000588E070087403900585F08005E49005A9
:083BB80085F0900585E0FF2275
:103BC0009001D3120046E004F09001D47003E004A9
:103BD000F0120164900589F09001D3120046E004D0
:103BE000F09001D47003E004F012016490058AF0B3
:103BF0009001D3120046E004F09001D47003E00479
:103C0000F012016490058BF09001D312004612016E
:103C10006490058CF0900589E0B4FF1D90058AE062
:103C2000B4FF1690058BE0B4FF0F90058CE0B4FF55
:103C3000087401900589F08049900589E0B47F1BE4
:103C400090058AE0B4801490058BE0700E90058C8E
:103C5000E070087402900589F08027900589E0B42F
:103C6000FF1B90058AE0B4801490058BE0700E90E5
:103C7000058CE070087403900589F08005E49005D8
:083C800089F0900589E0FF22A4
:103C88008E4B8F4C900013A982AA8374029001D0A6
:103C9800F0A3EAF0A3E9F09001D2E004F09001D19A
:103CA8007003E004F08F03EF8E0275F002C333CA8D
:103CB80033CAD5F0F8FB9001D2E02BF89001D1E09F
:0A3CC8003A9001D0A3F0A3E8F02227
:103CD200E4FEFF123C888E3AE53AB4200050071207
:073CE20037B9053A80F22218
:103CE9008E4B8F4C900191E030E211C04BC04C7B60
:103CF900057A2E79CF121800158115819001D012FD
:103D090002A4ED9001D3F0A3ECF0A3E8F0E4F54DA3
:0B3D1900F54EF53AE53AB409005058A9
:103D2400E54D540F7008054EE54E7002054D1237EF
:0B3D3400B9123BC0EF90058DF0602835
:103D3F00E0454DF54DE4F09001D3120046E014F04C
:103D4F00F49001D47003E014F0E412011D90058D7E
:103D5F00E004F0B4040040DF9001D01202A4ED9013
:103D6F0001D3F0A3ECF0A3E8F0053A80A190019104
:103D7F00E030E211C04DC04E7B057A2E79D9121872
:063D8F00001581158122E0
:0A3D9500753A00E53AB440005041D1
:103D9F001217EF75BC0075BD0075BE0075BF00C270
:103DAF00AF75B90F75B90575B90275B904D2AFE51D
:033DBF00B96012D6
:103DC200C04BC04C7B057A2E79E61218001581157E
:0F3DD2008122053A054CE54C70BC054B80B822A8
:033DE10020120E9F
:103DE400D2148E538F54C28EC28FD212C322D322C6
:0E3DF400204F0B900191E05440700302403DBF
:103E02009001D9E0FBE4C0E0C0039001D8E0FBE4FC
:103E1200C0E0C0039001D7E0FBE4C0E0C0037B0533
:103E22007A2F790E12180074FA2581F58120160B6B
:103E32007B057A2F791812180080097B057A2F7971
:103E42001D12180020170B7B057A2F7922121800F9
:103E520080097B057A2F792712180012003690010B
:103E6200E3E0C0E0A3E0C0E09001E1E0C0E0A3E055
:103E7200C0E09001E7E0C0E0A3E0C0E09001DCE038
:103E8200FBE4C0E0C0037B057A2F792C1218007482
:103E9200F82581F5811200369001E0E06007E0B478
:103EA2000901D3400674039001E0F09001E0E0FBC9
:103EB200E4C0E0C0039001EFE0C0E0A3E0C0E09006
:103EC20001F512018F7B057A2F793912180074F8E7
:103ED2002581F581201E0B7B057A2F791812180097
:103EE20080097B057A2F791D121800201F0B7B0594
:103EF2007A2F792212180080097B057A2F792712EE
:103F020018001200369001EDE0C0E0A3E0C0E0909E
:103F120001EBE0C0E0A3E0C0E09001E9E0C0E0A373
:103F2200E0C0E09001DAE0FBE4C0E0C0037B057A88
:103F32002F792C12180074F82581F5811200369021
:103F420001DBE0FBE4C0E0C0039001DEE0FBE4C083
:103F5200E0C0039001DDE0FBE4C0E0C0039001FD9E
:103F620012018F7B057A2F794412180074F625818D
:103F7200F58112003620B70B7B057A2F7952121881
:103F82000080097B057A2F795612180020B60B7B28
:103F9200057A2F795212180080097B057A2F7956FB
:093FA2001218009001D6E070191C
:103FAB0020B50B7B057A2F795212180080227B05E6
:093FBB007A2F79561218008017C4
:103FC400201C0B7B057A2F795212180080097B057F
:0D3FD4007A2F79561218009001D6E070196E
:103FE10020B40B7B057A2F795212180080227B05B1
:093FF1007A2F795612180080178E
:103FFA00201D0B7B057A2F795212180080097B0548
:10400A007A2F79561218009001D6E0FBE4C0E0C07E
:10401A00037B057A2F795B121800158115819001AF
:10402A00CC12018F7B057A2F795F12180074FC2558
:04403A0081F5812269
:10403E00C24F123DF4C227E49001D7F09001D8F0A0
:0E404E009001D9F0D2157E2E7F50123DE12256
:10405C00121FA97B057A2F796412180012403E2298
:10406C00121F6D7B057A2F798512180012403E22A3
:10407C00C226E49001DDF020B6037401F020B706EF
:09408C0074029001DDF0201E3CDD
:10409500121FA99001E9E4F0A3F0D2249001DDE01C
:1040A500700C9001EB7401F0A37490F080099001FD
:1040B500EBE4F0A374C8F0202505121FBF8003129E
:0D40C5001FD2741A9001D8F09001D7F0229C
:1040D2009001E1E0F5F0A3E0FB9001E5E0B5F00529
:1040E200A3E0B5030050089001E7E4F0A3F02290AA
:1040F20001E5E0FAA3E0FB9001E2E0F8EBC398FBF4
:0F4102009001E1E0F8EA989001E7F0A3EBF022DA
:104111009001E1E0FAA3E0FB9001E6E02BFB9001C6
:0B412100E5E03A9001E7F0A3EBF0228C
:10412C009001D7E0B40F030244AD5074E0B4070320
:10413C0002435A5035E0B403030242475015E07075
:10414C000302421E1470030242471470030244021D
:10415C0002421EE024FC700302440214700302436A
:10416C005A14700302440202421EE0B40B030243D1
:10417C005A5017E024F870030244021470030243EF
:10418C005A14700302440202421EE024F47003022B
:10419C0044021470030244AD147003024533807260
:1041AC00E0B417030245595035E0B413030244AD93
:1041BC005016E024F070030245331470030244AD32
:1041CC00147003024533804AE024EC70030245333B
:1041DC001470030245591470030245BF8034E0B4D7
:1041EC001B030248A45016E024E870030245BF14D8
:1041FC0070030247FF14700302483B8015E024E46F
:10420C0070030248EE14700302498424FE7003020A
:02421C004A1442
:06421E009001D8E0600CE5
:10422400E09001D7F0E49001D8F080149001D9E037
:02423400600C1C
:10423600E09001D7F0E49001D9F08002C227C21BBA
:074246002230160302433D84
:10424D00121F6D9001E1E4F0A3F07557027558024D
:10425D00D21AD219C21B9001E7E0FAA3E0FB90013C
:10426D00E5EAF0A3EBF09001EFE07004A3E0601E2F
:10427D00E4C0E0C0E09001EFE0C0E0A3E0C0E0E406
:10428D00FCFD74D6FE74D8FF121125BF010A9001F2
:10429D00EF74D6F0A374D8F09001D7E0B4010C9070
:1042AD0001E374DEF0A374A8F080109001EFE0FA42
:1042BD00A3E0FB9001E3EAF0A3EBF0E4FCFD900139
:1042CD00E3E0FEA3E0FF1216489000071201D6901E
:1042DD00000712018F7C6F7D127E837F3A1212E5EB
:1042ED00C004C005C006C007E4FCFD7420FE744088
:1042FD00FF12118E9000071201D69000071201CA0D
:10430D0012164C9001F51201D69001CC1201CA90F3
:10431D0001F11201D69001D7E0B40105121F83807F
:10432D0003121F96C24F123DF49001D7E004F02204
:10433D00121F6D9001D7E0B401051240D280031217
:10434D004111C24F123DF4E49001D7F02230160313
:03435D000243DC3C
:10436000121F6D9001E1E4F0A3F09001CC1201CA9C
:104370009001F11201D69001D7E064056004E0B429
:02438000071420
:10438200755704755804C21A9001F512022E0000E6
:0443920000E58012B0
:10439600755702755802D21A9001F512022E0000C6
:1043A6000073C219C21B9001E7E0FAA3E0FB90017B
:1043B600E5EAF0A3EBF09001D7E064056004E0B411
:1043C6000905121F838003121F96C24F123DF490F7
:0643D60001D7E004F02213
:1043DC00121F6D9001D7E064056004E0B40905126A
:1043EC0040D28003124111C24F123DF4E49001D728
:0943FC00F09001D8F022201658BF
:104405009001D7E064026009E064066004E0B40A44
:01441500178F
:03441600201C0F58
:1044190074019001DCF09001E7E4F0A3F080181238
:0444290040D28013EA
:10442D00301D079001D7E0B4040674029001DCF052
:10443D00124111C24F123DF49001D7E06402600A9F
:10444D00E064046005E49001D8F0E49001D7F02217
:10445D009001CC12018F9001F11201CA1210FFC010
:10446D0004C005C006C0079001F51201CA1211342F
:05447D00BFFF028005F5
:10448200121F6DD21B9001D7E064026009E064063E
:104492006004E0B40A051240D28003124111301BBD
:0144A2000910
:1044A30074969001DCF012406C2220165D9001E3BB
:0744B300E07004A3E0605378
:1044BA00121F6D9001E1E4F0A3F09001D7E0640DC2
:0644CA006004E0B40F0ADB
:0A44D000755704755804C21A8008DD
:1044DA00755702755802D21AD219C21B9001E7E029
:1044EA00FAA3E0FB9001E5EAF0A3EBF0202605121F
:1044FA001F838003121F96C24F123DF49001D7E02A
:03450A0004F02298
:10450D00121F6D9001D7E0640D6004E0B411051227
:10451D0040D28003124111C24F123DF4E49001D7F5
:10452D00F09001D8F0229001D7E0640E6004E0B461
:0D453D0012051240D2800312411120160E0B
:10454A00C24F123DF4E49001D7F09001D8F0222036
:02455A001E55EC
:10455C00121FA99001E9E4F0A3F09001EDF0A3F093
:10456C00D221755A64755B64C2249001FD12022E2F
:10457C00000000059001CC1201CA9001F91201D67D
:10458C00755C05E4F55DF55EC2239001D7E0B415CA
:10459C0005121FBF8003121FD2C24F123DF49001AF
:0545AC00D7E004F0223D
:1045B100121FA9C24F123DF4E49001D7F022301E20
:0445C100030247D1D9
:1045C500C24F123DF4900191E030E618E4C0E0C01E
:1045D5005EC0E0C05D7B057A2F79A512180074FCDA
:1045E5002581F5819001DAE014600F14604A1460AA
:0A45F500751470030246A70246E1A8
:1045FF009001E9E0B40105A3E0B42C00402790013D
:0D460F00E9E0B40106A3E0B4F401D35018B3
:10461C009001D7E0B4160874029001DAF0800F74A0
:10462C00049001DAF00246E174FB9001DAF00246E4
:10463C00E19001E9E0B40205A3E0B4BC004018909D
:10464C0001E9E0B40306A3E0B48401D35009740477
:10465C009001DAF00246E174FC9001DAF080769079
:10466C0001E9E0B40105A3E0B42C0040269001E977
:0C467C00E0B40106A3E0B4F401D3501731
:104688009001D7E0B4160874049001DAF0800E7433
:10469800029001DAF0804274FD9001DAF0803A90DD
:1046A80001E9E0B40105A3E0B42C0040269001E93B
:0C46B800E0B40106A3E0B4F401D35017F5
:1046C4009001D7E0B4160874019001DAF0800E74FA
:1046D400039001DAF0800674FE9001DAF09001D7BD
:1046E400E09001D8F09001DFE07007E49001D7F08A
:0B46F40080389001DAE0B40500502C83
:0F46FF009001DFE014F07007E49001D7F0802005
:10470E009001D7E0B4160874159001D8F0800674A5
:10471E00179001D8F074199001D7F0800312405C05
:10472E009001DFE060030247D09001DAE0B40500AB
:05473E0040030247D01A
:104743009001EDE0B40006A3E0B40501D3401B9053
:1047530001EEE024FBFB9001EDE034FFC313CB1328
:10476300CB9001EBF0A3EBF080079001EBE4F0A317
:10477300F0900191E030E6179001EBE0C0E0A3E098
:10478300C0E07B057A2F79B212180015811581904C
:0947930001EBE07004A3E06034C6
:10479C00121FA9D2249001FD12022E0000000390DA
:1047AC0001CC1201CA9001F91201D69001D8E0B4E3
:1047BC001605121FD28003121FBFE49001D8F0C25D
:1047CC004F123DF4229001CC12018F9001F912018D
:1047DC00CA1210FFC004C005C006C0079001FD122C
:0947EC0001CA121134BFFF0122C1
:0D47F50074FF9001DAF012405C22201E0BD0
:10480200C24F123DF4E49001D7F0229001CC120184
:104812008F9001F91201CA1210FFC004C005C00630
:0F482200C0079001FD1201CA121134BFFF01221D
:0D48310074FF9001DAF012405C22201E405E
:10483E009001DEE004F0C24F123DF4B2259001DE8D
:0A484E00E0B40300500412407C2285
:094858009001DBE014F030260DA4
:10486100E4F09001D8F0741B9001D7F0229001DBA5
:03487100E07009EB
:0D48740074F09001DAF012405C2220262240
:104881009001DDE0700630B61730B7149001DDE01D
:10489100B4010320B60A9001DDE0B4020530B7028D
:0648A100D22622201E4673
:1048A700121FA99001E9E4F0A3F09001EDF0A3F045
:1048B700D221755A64755B64C2249001FD12022EE1
:1048C700000000059001CC1201CA9001F91201D62F
:1048D700755C05121FBFC24F123DF4E49001D8F07A
:0A48E7009001D7E004F022201E65C6
:0F48F1009001E9E0B40106A3E0B4F401D3501D37
:0C4900009001DBE004F0B40301D3400A96
:10490C0074F19001DAF012405C229001D7E014F0BF
:10491C00229001E9E0B40205A3E0B4BC0040219070
:0E492C0001E9E0B40306A3E0B48401D3501205
:10493A0074049001DAF074159001D7F0E49001D86C
:02494A00F02259
:10494C0074F29001DAF012405C229001CC12018FCB
:10495C009001F91201CA1210FFC004C005C006C0B4
:0E496C00079001FD1201CA121134BFFF012293
:10497A0074F39001DAF012405C22301603024A13F3
:06498A00301E03024A1377
:10499000C24F123DF4741D9001D8F09001D9F090EF
:1049A00001DAE014600B14603714603B14604D8032
:0149B0005FA7
:0749B1009001DCE0B40121DC
:0649B8009001DBE0700E2F
:0E49BE00E49001D7F09001D8F09001D9F022DA
:1049CC009001DBE014F074179001D7F02274019081
:1049DC0001D7F02274159001D7F0229001DCE0B4DD
:1049EC00020774159001D7F02274039001D7F022BE
:1049FC0020250874179001D7F0800674159001D704
:0B4A0C00F0B2252212405C223016138D
:104A1700121F6D2017051240D28003124111E49036
:104A270001DCF0301E05E49001DAF0121FA9C24F35
:104A3700123DF4E49001D7F09001D8F09001D9F03D
:014A4700224C
:104A4800E569900295F090025B12018FE4FCFD7419
:104A5800C8FE7442FF1216D7BFFF028003024B77CD
:104A680090025B12018F7C377D047E0E7F4012120C
:104A7800E5C004C005C006C0077C597DF77E717F7C
:104A8800C312118EC004C005C006C007E4C0E0C050
:104A9800E0C0E07440C0E090025B1201CA120D94BD
:104AA80074FC2581F581C004C005C006C0077C865A
:104AB8007D797E307F3B1212E512118EC004C0054D
:104AC800C006C007E4C0E0C0E07440C0E0C0E090A9
:104AD800025B1201CA120D9474FC2581F581C00491
:104AE800C005C006C0077C377DD57ED37F3612123D
:104AF800E5121185C004C005C006C007E4C0E0C0C7
:104B0800E07480C0E07440C0E090025B1201CA12F9
:104B18000D9474FC2581F581C004C005C006C0074A
:104B28007CB87D357E9A7F321212E5121185C00459
:104B3800C005C006C007E4C0E0C0E074A0C0E074CF
:104B480040C0E090025B1201CA120D9474FC2581EA
:104B5800F581C004C005C006C0077C647DFD7E08E1
:104B68007F2F1212E512118E90025F1201D6229049
:104B7800025B12018F7C707D6D7EC67FB21212E5DA
:104B8800C004C005C006C0077C177D837E937F37AD
:104B980012118E120D0EC004C005C006C0077C326B
:104BA8007D117E807FBB12118EC004C005C006C077
:104BB800077C8E7D607E537FC91212E590025F12DA
:034BC80001D622F1
:104BCB0090059B1201D690059B12018FE4FFFEFC12
:104BDB00FD1216D7BFFF02807A90059B12018F7CC6
:104BEB00327D117E807F3B1212E5C004C005C006EA
:104BFB00C007E4FCFD7480FE743FFF12118EC004ED
:104C0B00C005C006C007E4C0E0C0E0C0E07440C00F
:104C1B00E090059B1201CA120D9474FC2581F5815D
:104C2B00C004C005C006C0077C7F7D057E1B7FB519
:104C3B001212E512118EC004C005C006C007E4FCB9
:104C4B00FD74C8FE7442FF1212E590059F1201D647
:104C5B00024D2A90059B12018FE4FCFD74C8FE7473
:104C6B0042FF121185C004C005C006C0077C1D7D24
:104C7B002D7E937FAC1212E5C004C005C006C007A1
:104C8B00E4C0E0C0E07440C0E0C0E090059B1201BE
:104C9B00CA120D9474FC2581F5811212E5C004C073
:104CAB0005C006C00790059B12018F7C327D117EDB
:104CBB00807F3B1212E5C004C005C006C007E4FCB0
:104CCB00FD7480FE743FFF12118EC004C005C00638
:104CDB00C007E4C0E0C0E0C0E07440C0E090059BBA
:104CEB001201CA120D9474FC2581F581C004C00514
:104CFB00C006C0077C7F7D057E1B7FB51212E512B7
:104D0B00118E12118EC004C005C006C007E4FCFD55
:104D1B0074C8FE7442FF1212E590059F1201D690E3
:064D2B00059F1201CA22DF
:104D3100C2AE75D13175D50075D22475E68C75D3A7
:0E4D41006675D45275D133C22AC22BD2AE226F
:104D4F00C2AE75D13175D50075D22775E64A75D3C8
:0E4D5F006675D45275D133C22AC22BD2AE2251
:0B4D6D00202F04E4F53D22753D0122DB
:104D7800124D6DE5682471F582E43402F583E4F0A0
:104D8800E53D7018E568232354FC24F6F582E434E5
:104D980002F58312022E000000008016E568232326
:104DA80054FC2416F582E43403F58312022E000025
:104DB8000000900292E0232354FC2436F582E43468
:0B4DC80003F58312022E000000002201
:074DD300E56B7003024E794D
:104DDA00E56D256BFDE43400ED75F00CA42490F527
:104DEA0082E43400F58312018FE56D256AFDE4340F
:104DFA0000ED75F00CA42490F582E43400F58312DA
:104E0A0011829000071201D690000712018FE4FF69
:104E1A00FEFCFD1216D7BF0010E5692487F582E46F
:104E2A003402F583740DF08046E56D256BFDE4349C
:104E3A0000ED75F00CA4248CF582E43400F583129D
:104E4A00018FE56D256AFDE43400ED75F00CA424AC
:104E5A008CF582E43400F583121182C004C005C0C7
:104E6A0006C00790000712143E9002471201D6E5C9
:104E7A006D256AFDE43400ED75F00CA4248CF582EE
:104E8A00E43400F58312018F90024712018FE56D19
:104E9A00256AFFE43400EF75F00CA42490F582E44F
:104EAA003400F5831212E21211859002431201D6E0
:014EBA0022D5
:104EBB00E56EB43F01D34003E4F56EE4C0E0C06E91
:104ECB007B057A2F79C212180015811581E56E705A
:044EDB0003024F700F
:104EDF00E4F56AF56B756C01F53DE56CB43F01D3F4
:024EEF00507FF2
:064EF100E56E556C601E29
:104EF700E56A7007E53D04F56A8013E56B7007E521
:064F07003D04F56B80087B
:104F0D00856B6AE53D04F56BE56CC333F56C053DCA
:104F1D0090024312022E0000000090024712022E52
:104F2D0000008043124DD390024312018F9002472F
:104F3D0012018FE56D253DFDE43400ED75F00CA4F7
:104F4D002488F582E43400F58312018FE4C0E0C0BB
:104F5D003D7B057A2F79CF12180074F22581F581EA
:044F6D00024EE922E5
:104F7100E56EB43F01D34003E4F56EE56E700302C4
:024F81005017C7
:104F8300E4F56AF56B756C01F53DE56CB43F01D34F
:024F9300507B51
:064F9500E56E556C606A38
:104F9B00E56A7007E53D04F56A8013E56B7007E57C
:064FAB003D04F56B8008D7
:104FB100856B6AE53D04F56BE56B6048E56D702036
:104FC10090025B12018FE56D253D75F00CA4249CC8
:104FD100F582E43400F5831201CA1216D7BF012FFE
:104FE100E56D602090025B12018FE56D253D75F046
:104FF1000CA42494F582E43400F5831201CA12163C
:10500100D7BF010BE56CC333F56C053D024F8DE550
:075011006D7003124DD32264
:1050180090000712018FE4FCFD74C0FE7443FF1278
:105028001185C004C005C006C0077CCD7DCC7E4C70
:105038007F3B1212E5C004C005C006C007E4FCFDB2
:0A5048007448FE7442FF1211852225
:1050520090024312018F90024712018F90025B125D
:0650620012E212118E2281
:04506800E56B70592B
:10506C00E56D256AFDE43400ED75F00CA4248CF597
:10507C0082E43400F5831201CAE53D232354FC2459
:10508C009AF582E43403F5831201D6053DE56D25CE
:10509C006AFDE43400ED75F00CA42490F582E43440
:1050AC0000F5831201CAE53D232354FC249AF582B2
:0950BC00E43403F5831201D6224D
:1050C500E56D256BFDE43400ED75F00CA42488F541
:1050D50082E43400F58312018FE56D256AFDE43421
:1050E50000ED75F00CA42488F582E43400F58312F4
:1050F50011829000071201D690000712018FE4FF7C
:10510500FEFCFD1216D7BF0007740D900384F02234
:1051150090025B12018FE56D256AFDE43400ED75A3
:10512500F00CA42488F582E43400F583121182C0C2
:1051350004C005C006C00790000712143E90000782
:105145001201D6E56D256BFFE43400EF75F00CA474
:10515500248CF582E43400F58312018FE56D256A10
:10516500FFE43400EF75F00CA4248CF582E43400E0
:10517500F583121182C004C005C006C00790000760
:105185001212E2C004C005C006C007E56D256AFF1E
:10519500E43400EF75F00CA4248CF582E43400F5BA
:1051A5008312118BE53D232354FC249AF582E434C4
:1051B50003F5831201D6053DE56D256BFFE434004B
:1051C500EF75F00CA42490F582E43400F583120108
:1051D5008FE56D256AFFE43400EF75F00CA424908B
:1051E500F582E43400F583121182C004C005C006BF
:1051F500C0079000071212E2C004C005C006C00730
:10520500E56D256AFFE43400EF75F00CA42490F5F4
:1052150082E43400F58312118BE53D232354FC24ED
:0C5225009AF582E43403F5831201D622CE
:0F52310090026FE060091470030256820256A8C3
:10524000121F54C2AFE52F23235403F5685368039C
:10525000D2AFC22F124D787402900270F0124D4FEF
:0652600030310302566E1E
:1052660012272EE4900384F03029037402F03028CC
:10527600067403900384F0900384E0600302566E84
:10528600900385E06016E4FCFD90036CE0FEA3E06D
:10529600FF1216489003721201D6802F90037212E5
:1052A600018FE4FCFD90036CE0FEA3E0FF121648BC
:1052B60012118EC004C005C006C007E4FEFCFD74D2
:1052C6003FFF1212E59003721201D6E4FCFD900333
:1052D6006CE0FEA3E0FF1216489000071201D612FA
:1052E600501890038E1201D674029001D3F0A37465
:1052F60003F0A3748EF0123AF8EF6009900384E08D
:105306004410F0803290038E12018F7CBD7D377E73
:10531600067FB51216D7BF011E90038E12018F7C31
:10532600BD7D377E067F351216D7BFFF0A90038EE6
:1053360012022E000000009003721201CA900007AC
:105346001201D61250189003961201D674029001DB
:10535600D3F0A37403F0A37496F0123AF8EF600941
:10536600900384E04420F0803290039612018F7CF3
:10537600BD7D377E067FB51216D7BF011E900396F8
:1053860012018F7CBD7D377E067F351216D7BFFF93
:105396000A90039612022E00000000900385E0603A
:0153A6001BEB
:1053A700E4FCFD90036AE0FEA3E0FF1216489003B9
:1053B7006E1201D6E4900385F0802F90036E1201E0
:1053C7008FE4FCFD90036AE0FEA3E0FF121648128B
:1053D700118EC004C005C006C007E4FEFCFD743F83
:1053E700FF1212E590036E1201D690024712022EA9
:1053F7000000163C90024312022E000016C39003D1
:1054070084E0542F60030254F6900015E070030205
:0B54170054F6900016E070030254F6FB
:105422009003961201CA90025B1201D690025B129F
:1054320001CA90039A1201D6756D06900015E0F527
:0B5442006E124F71E56E70030254F60D
:10544D00E56A900386F0E56B900387F0753D0112D8
:10545D005068756D0C900016E0F56E124F71E56E8B
:0B546D0070030254F6900384E0707E90
:10547800E56A900388F0E56B900389F0753D0312A7
:085488005068900384E0706697
:105490009003AA12018F9003A212118290000712AA
:1054A00001D690000712018FE4FFFEFCFD1216D713
:1054B000BF0008740D900384F080209003A61201B1
:1054C0008F90039E121182C004C005C006C00790D1
:1054D000000712143E9002471201D690039E12015B
:1054E0008F90024712018F9003A21212E2121185CF
:1054F0009002431201D69002471201CA900257123D
:1055000001D69002431201CA9002531201D6E4FC64
:10551000FD90036AE0FEA3E0FF12164890025B12C2
:1055200001D612505290038A1201D674029001D310
:10553000F0A37403F0A3748AF0123AF8EF600990B4
:085540000384E04440F08053B5
:1055480090038A12018F7CBD7D377E067FB51216C7
:10555800D7BF011E90038A12018F7CBD7D377E065E
:105568007F351216D7BFFF0A90038A12022E000059
:10557800000090038A12018FE4FCFD7448FE744316
:0A558800FF1216D7BF010C30160900
:1055920074649001DCF012406C900191E030E36899
:1055A200900389E0FBE4C0E0C003900388E0FBE4E1
:1055B200C0E0C003900387E0FBE4C0E0C0039003B7
:1055C20086E0FBE4C0E0C0037B057A2F79F812186D
:1055D2000074F82581F5819002531201CA1236BE79
:1055E200C004C005C006C0079002571201CA123695
:1055F200BEC004C005C006C0077B057A30791B1205
:10560200180074F82581F58190036E1201CA900288
:105612005B1201D61250529003921201D67402907C
:1056220001D3F0A37403F0A37492F0123AF8EF607E
:1056320009900384E04480F0803290039212018F3B
:105642007CBD7D377E067FB51216D7BF011E900343
:105652009212018F7CBD7D377E067F351216D7BF31
:10566200FF0A90039212022E00000000900296128E
:0D567200022EEC51783FE5687005203102F2
:10567F00D23922C22F124D787402900270F0124D5F
:10568F00311227153029067402900384F030280652
:10569F007403900384F0C23122C22FE490026FF0A2
:0156AF0022D8
:0A56B000753A00E53AB40400503CDE
:1056BA00E53A2475F582E43402F58374AAF0E53AF2
:1056CA002481F582E43402F58374AAF0E53A24874A
:1056DA00F582E43402F5837401F0E53A248BF5820D
:1056EA00E43402F5837401F0053A80BD74AA90028D
:1056FA0085F0900286F0740190028FF0900290F08B
:0D570A0074AA900385F07401900384F022CE
:10571700C2AE75D100E4900292F01256B0C22DC20B
:105727002EE490026FF0D231C2AF432FC0D2AF1236
:03573700523122CA
:09573A00124D6D202A03025C1CD3
:10574300C22AE5682471F582E43402F583E06064DB
:10575300E53D7031C060C061C062C063E56823236A
:1057630054FC24F6F582E43402F5831201CA1210C4
:10577300EFE568232354FC24F6F582E43402F58331
:105783001201D6802FC060C061C062C063E5682388
:105793002354FC2416F582E43403F5831201CA1260
:1057A30010EFE568232354FC2416F582E43403F553
:1057B300831201D6E5682471F582E43402F583E0AF
:1057C3006033C064C065C066C067900292E0232363
:1057D30054FC2436F582E43403F5831201CA121013
:1057E300EF900292E0232354FC2436F582E4340341
:1057F300F5831201D6E5682471F582E43402F5835A
:10580300E004F0900270E0F5F0E5682471F582E4BD
:0E5813003402F583E0B5F001D35003025C1CB3
:10582100C2AE75D13190026FE0600614600C025C6B
:015831001066
:1058320090026FE004F0025C15E53D6003025968D6
:10584200202D15C060C061C062C063E4FC74FFFF1C
:08585200FDFE121134BF001F1E
:10585A00E5682475F582E43402F5837455F0E56849
:0F586A002487F582E43402F5837403F0025A8A2E
:10587900E5682487F582E43402F583E4F0E56823DA
:105889002354FC24F6F582E43402F5831201CA7527
:10589900F00112007FE568232354FC2406F582E415
:1058A9003403F5831201D6E568232354FC2406F555
:1058B90082E43403F5831201CA12164890021312C6
:1058C90001D690021312018FE4FCFD7480FE74333B
:1058D900FF1212E59002131201D6E5682475F582CC
:0858E900E43402F583E06028BD
:1058F1009002131201CAE568232354FC241BF5828C
:10590100E43402F5831201D6E5682475F582E434A6
:1059110002F583E4F0025A8A90021312018F749AFD
:10592100FC14FDFE743EFF1212E5C004C005C00662
:10593100C007E568232354FC241BF582E43402F5F7
:105941008312018F7433FEFCFD743FFF1212E512C6
:10595100118EE568232354FC241BF582E43402F5FF
:07596100831201D6025A8AED
:10596800202D15C060C061C062C063E4FC74FFFFF5
:08597800FDFE121134BF001FF7
:10598000E5682481F582E43402F5837455F0E56816
:0F599000248BF582E43402F5837403F0025A8A03
:10599F00E568248BF582E43402F583E4F0E56823AF
:1059AF002354FC2416F582E43403F5831201CA75DF
:1059BF00F00112007FE568232354FC2426F582E4CE
:1059CF003403F5831201D6E568232354FC2426F50E
:1059DF0082E43403F5831201CA121648900213129F
:1059EF0001D690021312018FE4FCFD7480FE743314
:1059FF00FF1212E59002131201D6E5682481F58299
:085A0F00E43402F583E0602796
:105A17009002131201CAE568232354FC242BF58254
:105A2700E43402F5831201D6E5682481F582E43473
:105A370002F583E4F0804C90021312018F749AFCF4
:105A470014FDFE743EFF1212E5C004C005C006C077
:105A570007E568232354FC242BF582E43402F583FD
:105A670012018F7433FEFCFD743FFF1212E5121111
:105A77008EE568232354FC242BF582E43402F58356
:105A87001201D6202E15C064C065C066C067E4FC4D
:0B5A970074FFFDFEFF121134BF00235E
:105AA200900292E02485F582E43402F5837455F085
:105AB200900292E0248FF582E43402F5837403F0BD
:035AC200025BE79D
:105AC500900292E0248FF582E43402F583E4F090AD
:105AD5000292E0232354FC2436F582E43403F58353
:105AE5001201CA75F00112007F900292E02323543F
:105AF500FC243EF582E43403F5831201D69002922C
:105B0500E0232354FC243EF582E43403F58312019B
:105B1500CA1216489002171201D690021712018F69
:105B2500E4FCFD7480FE7433FF1212E59002171237
:105B350001D6900292E02485F582E43402F583E0F3
:025B4500602BD3
:105B47009002171201CA900292E0232354FC243BCF
:105B5700F582E43402F5831201D6900292E024859F
:105B6700F582E43402F583E4F0804F9002171201C6
:105B77008F7CCD7DCC7E4C7F3E1212E5C004C005E4
:105B8700C006C007900292E0232354FC243BF58211
:105B9700E43402F58312018F7CCD7DCC7E4C7F3FB0
:105BA7001212E512118E900292E0232354FC243B3B
:105BB700F582E43402F5831201D6900292E0702058
:105BC70090023B12018F7C9A7D997E197F3E1216B7
:045BD700D7BFFF0C29
:105BDB007411900285F0740390028FF0D22CA22FD7
:105BEB009230900292E0900293F0856869E4900203
:095BFB0092F090026FE0B4010485
:105C0400E4F0800D740190026FF08005E490026F5F
:095C1400F0C22DC22E1252312201
:105C1D008F039000071201CA90058E1201D6C25350
:105C2D008B3DE53D75F003A4F53D900291E07018B4
:105C3D0090058E1201CA90000B1201D6E53D24404D
:085C4D00FF7E00123C88803547
:105C5500900384E0542F700E9003961201CA9000B1
:105C65000B1201D68002D253900291E0B4010CE5EB
:105C75003D2452FF7E00123C88800AE53D2464FFE6
:085C85007E00123C882053133D
:105C8D0090000B1201CA9000071201D6123AD4509F
:095C9D0002D322900291E0701B79
:105CA60090058E1201CA124BCB90000B1201D6E55D
:0B5CB6003D2441FF7E00123C88802945
:105CC10090058E1201CA90000B1201D6900291E04C
:105CD100B4010CE53D2453FF7E00123C88800AE5A7
:0C5CE1003D2465FF7E00123C8820531318
:105CED0090000B1201CA9000071201D6123AD4503F
:095CFD0002D322900291E070181C
:105D060090021B1201CA90000B1201D6E53D2442F7
:085D1600FF7E00123C88802989
:105D1E0090036E1201CA90000B1201D6900291E010
:105D2E00B4010CE53D2454FF7E00123C88800AE548
:0C5D3E003D2466FF7E00123C88205313B9
:105D4A0090000B1201CA9000071201D6123AD450E1
:095D5A0002D3221256B0A253221A
:065D6300202C03026192F6
:105D6900C22C900293E0248FF582E43402F583E09B
:055D79006003025E342E
:105D7E00900293E0232354FC243BF582E43402F595
:105D8E00831201CA90025B1201D690024312022EB8
:105D9E000000000090024712022E00409C45900227
:105DAE004712018F90025B1212E290024312018F92
:105DBE0012118E90025B1201D690025B12018FE4DB
:105DCE00FC7D807E507F44121185C004C005C00644
:105DDE00C0077C087D217E047F3D1212E590026B88
:105DEE001201D690026B1201CA9002E21201D690F5
:105DFE0002E212018FE4FCFD74C8FE7442FF12161B
:105E0E00D7BF010A9002E212022E0000C842900291
:105E1E00431201CA9002531201D69002471201CAD0
:0C5E2E009002571201D630300302610BC5
:105E3A00E5692487F582E43402F583E060030261B0
:015E4A000A4D
:105E4B0090024312022E0000000090024712022E15
:105E5B0000008043E569600AE569B4010280030232
:025E6B0060EEE7
:105E6D00E569232354FC241BF582E43402F58312E7
:0C5E7D0001CA90025B1201D6E569707446
:105E8900E4F56D900014E0F56E124F71900247121F
:105E990001CA90024F1201D69002431201CA900220
:0B5EA9004B1201D6900191E030E3495C
:105EB400E4C0E0C06BC0E0C06A7B057A307933127D
:105EC400180074FC2581F58190024B1201CA123628
:105ED400BEC004C005C006C00790024F1201CA121A
:105EE40036BEC004C005C006C0077B057A307949B8
:105EF40012180074F82581F58190024712018F90E1
:105F0400025B1212E290024312018F12118E900270
:105F14005B1201D690025B1201CAE569232354FC8B
:105F240024A2F582E43402F5831201D6E569232321
:105F340054FC24A2F582E43402F58312018F7CBD63
:105F44007D377E067F351216D7BFFF16E5692323FA
:105F540054FC24A2F582E43402F58312022E0000DC
:105F64000000900191E030E32CE569232354FC24E4
:105F7400A2F582E43402F5831201CA1236BEC004CB
:105F8400C005C006C0077B057A3079611218007419
:105F9400FC2581F581E569232354FC24A2F582E4E0
:105FA4003402F58312018F7C667D067E717F421276
:055FB40016D7BFFF1E1F
:105FB900E5692475F582E43402F583740FF0E56927
:105FC9002487F582E43402F5837405F08041E5699C
:105FD900232354FC24A2F582E43402F58312018FB1
:0E5FE9007C627D307E7A7F431216D7BF011E88
:105FF700E5692475F582E43402F58374F0F0E56908
:0E6007002487F582E43402F5837406F08003EA
:10601500124A4890025F1201CAE569232354FCFB2A
:1060250074B22BF582E43402F5831201D690019106
:07603500E020E3030260ED2F
:10603C00E569232354FCFB74B22BF582E43402F59E
:10604C00831201CA1236BEC004C005C006C0077B4D
:10605C00057A30796E12180074FC2581F581E5699A
:10606C00232354FCFB74B22BF8E43402FC7402902E
:10607C0001D3F0A3ECF0A3E8F09001D31200467426
:10608C000312027B9001D3EBF0A3EAF0A3E9F075C5
:09609C003A00E53AB40400503A60
:1060A5009001D3120046E014F0F49001D47003E09F
:1060B50014F0120164FDE4C0E0C0057B057A307977
:1060C5007C12180015811581E53AB403005007E4E8
:1060D500FE7F5F1285FF053A80BFE4FE7F291285AA
:0960E500FFE4FE7F0A1285FF2290
:1060EE00E5692475F582E43402F5837455F0E569AB
:0D60FE002487F582E43402F5837403F02258
:0E610B00E569248BF582E43402F583E07079B7
:09611900E5696005E569B4015473
:1061220090024B12022E00003CC390024F12022E2C
:106132000000A04490024F12018FE569232354FC12
:10614200242BF582E43402F5831212E290024B1200
:10615200018F12118E9002631201D6900263120116
:10616200CAE569232354FC24C2F582E43402F58390
:046172001201D6221E
:10617600E5692481F582E43402F5837455F0E56916
:0D618600248BF582E43402F5837403F022CB
:0400560012255922F4
:0461930012258B2224
:046197001225CB22E0
:04619B001225F822AF
:10619F00753A00E53AB404005012E53A2457F582F7
:0D61AF00E43403F5837401F0053A80E72223
:0661BC002032030263170C
:1061C200E4900352F0900191E030E52D900352E00B
:1061D2002457F582E43403F583E0FDE4C0E0C00512
:1061E200900352E0FDE4C0E0C0057B057A30797F80
:1061F20012180074FC2581F581900352E02457F5B2
:0962020082E43403F583E06077C7
:0E620B00900352E0FF12005620285920295619
:10621900900352E0FF7D46126197202836202933EA
:10622900900352E0FF7D4112619B2028142029111F
:10623900900352E02457F582E43403F583E4F080B7
:1062490022900352E02457F582E43403F583740263
:10625900F08023900352E02457F582E43403F58358
:106269007402F0026315900352E02457F582E43476
:0962790003F5837403F0026315C0
:10628200900352E0FF1261938F3D202876202973FC
:10629200E53DB47D01D34007E53DB4C9004012900D
:1062A2000352E02453F582E43403F583E53DF080A4
:1062B20010900352E02457F582E43403F58374010D
:0862C200F0900191E030E54B82
:1062CA00900352E02453F582E43403F583E090030B
:1062DA005BF0E4C0E0C03DE0FB3395E0C0E0C00302
:1062EA00900352E0FBE4C0E0C0037B057A30799466
:1062FA0012180074FA2581F5818010900352E02467
:0E630A0057F582E43403F5837401F0C23222A9
:10631800900191E030E4219003C412018F900504AC
:1063280012018F9003CC12018F7B057A3079AD1260
:09633800180074F42581F581229E
:10634100900191E030E4219003BC12018F9004F49C
:1063510012018F90050412018F7B057A3079CC12DE
:09636100180074F42581F5812275
:10636A009003BC12018FE4FCFD74F0FE7441FF122D
:07637A0016D7BF0102804DA0
:106381009003BC12018FE4FCFD7420FE7441FF12E6
:1063910016D7BFFF2D9003BC12018F74CDFC14FDE5
:1063A100FE743EFF1212E5C004C005C006C007E43A
:1063B100FCFD7480FE7440FF12118E9003BC12012B
:0D63C100D6229003BC12022E0000004122E3
:1063CE009003BC12018F7CEB7DE27E967F3F121212
:1063DE00E5C004C005C006C0077C9C7DC47EDD7F81
:1063EE00C112118E9003BC1201D69003BC12018F04
:1063FE007CBD7D377E067F351216D7BFFF0A900310
:09640E00BC12022E000000002265
:1064170090002C1201CA9003BC1201D612636A9035
:1064270003BC12018F7CCD7DCC7E8C7F3F1212E5A1
:106437009003C01201D69003C01201CA9003BC1288
:0364470001D62259
:01644A00222F
:10644B0090041BE070047419F02290041BE014F00C
:01645B00221E
:10645C0090041BE0B41903E4F02290041BE004F058
:01646C00220D
:10646D009003D41201CA900419E0232354FC241C78
:10647D00F582E43404F5831201D69003E41201CAC7
:10648D00900419E0232354FC2484F582E43404F5AC
:10649D00831201D6900419E004F0B41A004005E40B
:1064AD00900419F0900418E0F5F0900419E0B5F09F
:0164BD0010CE
:1064BE00900418E004F0B41A004005E4900418F0BB
:1064CE0090041AE0B41A00500690041AE004F02268
:1064DE009004EC12022E00000000900419E09004CB
:0F64EE001BF0753B0090041AE0B53B01D340252D
:0764FD0012644BE53B701A2D
:1065040090041BE0232354FC241CF582E43404F59A
:10651400831201CA9003C01201D6053B80D19003B7
:10652400C012018F90041BE0232354FC241CF58229
:10653400E43404F583121182C004C005C006C00708
:106544009004F01212E29003C012018F12118E9087
:1065540004EC1201D69004EC12018F7CBD7D377ED1
:10656400067FB51216D7BF011E9004EC12018F7C72
:10657400BD7D377E067F351216D7BFFF0A9004EC27
:0865840012022E0000000022AB
:0C658C008F3AE53AB4040040030268EEC8
:09659800E53A6005E53AB4015A48
:1065A1009003BC12018FE4FC7D807EA27F44121611
:0465B100D7BFFF1041
:1065B5009003B412022E00000514E4F53B0268674F
:1065C5009003BC12018FE4FCFD742FFE7446FF128C
:1065D50016D7BF010C9003B412022E00002BC08009
:1065E5000F9003BC1201CA12164C9003B41201D6C7
:0665F500753B010268671E
:1065FB00E53AB4020E9003BC1201CA9003C4120117
:10660B00D6800C9003BC1201CA9003C81201D6901D
:10661B0003BC12018F7C6F7D127E837F3A1216D7DB
:03662B00BFFF109E
:10662E009003B412022E00000514E4F53B026867D5
:10663E009003BC12018FE4FCFD74C8FE7442FF127D
:10664E0016D7BFFF02800D9003B412022E00002B4E
:04665E00C0026864AA
:05666200E53AB402401E
:106667009003BC12018F7C0A7DD77E237F3C1212D8
:10667700E5C004C005C006C007E4FC7DB07E1A7FF4
:10668700461212E5C004C005C006C007E4FC7D80C1
:106697007EA27F4412118E9003BC1201D602681E9F
:1066A7009003BC12018FE4FCFD7420FE7441FF12BD
:1066B70016D7BF01030267709003BC12018FE4FC79
:1066C7007D2F7EA37F3E1212E5C004C005C006C021
:1066D700077C0D7D567E217FC112118EC004C00537
:1066E700C006C0079003BC1212E2C004C005C00672
:1066F700C0077C347D8A7EF57F4212118EC004C0AC
:1067070005C006C0079003BC1212E2C004C005C052
:1067170006C0077C5E7D827E357FC412118EC00461
:10672700C005C006C0079003BC1212E2C004C00532
:10673700C006C0077C427DC97E117F4512118EC0FD
:1067470004C005C006C0079003BC1212E2C004C013
:1067570005C006C0077CCD7DCC7ECE7FC312118ECF
:106767009003BC1201D602681E9003BC12018F7CF5
:10677700417D067E597F351212E5C004C005C0066B
:10678700C0077C057D167E997FB912118EC004C0A3
:1067970005C006C0079003BC1212E2C004C005C0C2
:1067A70006C0077C387D117E2D7F3D12118EC004F7
:1067B700C005C006C0079003BC1212E2C004C005A2
:1067C700C006C0077CF07DD67E507FC012118EC0F8
:1067D70004C005C006C0079003BC1212E2C004C083
:1067E70005C006C0077CDE7D5D7E4A7F4312118EA1
:1067F700C004C005C006C0079003BC1212E2C00463
:10680700C005C006C0077C957D127E157F45121115
:106817008E9003BC1201D69003BC1201CA12164C0B
:106827009003B41201D69003BC12018F7CBD7D3753
:106837007E067F351216D7BFFF0280179003B4126A
:10684700018FE4FCFD7405FE7414FF121134BF01BF
:1068570002800A9003B412022E00000514753B0152
:106867009003B6E0FAA3E0FB900001EAF0A3EBF097
:10687700E53A6005E53AB40205E4F53A8003753A6E
:1068870001900001E0FCA3E0FDE53AC3332464F581
:1068970082E43400F583ECF0A3EDF0755F18E53A78
:1068A700541BFF900001E0FCA3E0FD120026E53B2E
:0268B700701659
:1068B900E53A7009900366E04410F0801D90036684
:0668C900E04402F080141F
:1068CF00E53A7009900366E054EFF0800790036695
:1068DF00E054FDF0755F40900366E0FF1200162252
:1068EF0090002C12018FE4FCFD74F0FE7441FF1236
:0768FF0016D7BF0102802A39
:106906007466C0E0C0E07414C0E07442C0E0900059
:106916002C12018F7C8F7DC27E957F3F1212E5126D
:1069260011859003BC1201D6800A9003BC12022E78
:10693600000000007F0212658C9003AFE0B4051ED4
:106946009003FC1201CA9003BC1201D69003CC122C
:0E695600022E0000803F74029003AFF0800F0D
:106964009003D41201CA9003BC1201D612636A9038
:1069740003CC12018F9003BC1212E29003BC1201EB
:10698400D67F0312658C9003C81201CA90050412C5
:1069940001D69003C81201CA9003FC1201D61263F7
:0869A4001874159003AEF022F7
:0B69AC00900411E065307003026AA83F
:1069B700E0FAE530C39AF53DB403005003026AA834
:1069C700E530F0C23B900410E064016004E0B403DA
:0169D7002A95
:0F69D800900414E0B40706A3E0B4D001D3500B31
:1069E700900414E4F0A3F0D23B8076900415E024E1
:1069F70030F0900414E034F8F08066900410E064FE
:076A0700026004E0B4045535
:0E6A0E00900414E0B42B05A3E0B4C000400EC9
:0E6A1C00900414742BF0A374C0F0D23B803EA3
:106A2A00900415E024D0F0900414E03407F09004A8
:106A3A0016E0F5F0A3E0FB900414E0B5F005A3E03E
:056A4A00B50300401936
:106A4F00900416E0FAA3E0FB900414EAF0A3EBF035
:106A5F00D23B8005E4900410F0E4FCFD900414E0B8
:106A6F00FEA3E0FF1216489003BC1201D69004104B
:106A7F00E064016004E0B40207E4FF12658C80114A
:106A8F00900410E064036004E0B404057F01126514
:0A6A9F008C303B05E4900410F02257
:106AA9008F3AE53AB40101D34003753A01203E0318
:036AB900026B9AD3
:106ABC009003DC12018F7466FEFCFD743FFF12160E
:106ACC00D7BF010C9003BC12022ECDCCCC3D80194B
:106ADC00E4C0E0C0E07480C0E0743FC0E09003DC30
:106AEC001211829003BC1201D69003BC12018FE4E8
:106AFC00FCFDFE743FFF1212E59003BC1201D69010
:106B0C0003BC12018F9004041212E29004041201CF
:106B1C00D69003DC12018F749AFC14FDFE743EFFB8
:106B2C001216D7BFFF3C203A169003E812018F7C57
:106B3C00A67D9B7E447FBB1216D7BF010280173007
:106B4C003A209003E812018F7CA67D9B7E447F3B0C
:106B5C001216D7BFFF0C90040812022ECDCC4C3D60
:106B6C00800A90040812022E00000000900191E0AF
:106B7C0030E41B90040812018F9003BC12018F7B30
:106B8C00057A3079EB12180074F82581F5819003A1
:106B9C00E012018F9004041212E29003F81201D655
:106BAC0090040812018F9003E01212E29003FC1281
:106BBC00018F12118E9003FC1201D69003E4120186
:106BCC008F90040FE0B2E7FF90040EE0FE90040DEE
:106BDC00E0FD90040CE0FC1212E59004001201D6CA
:106BEC009003F812018F7CBD7D377E067FB512169F
:106BFC00D7BF011E9003F812018F7CBD7D377E0636
:106C0C007F351216D7BFFF0A9003F812022E000030
:106C1C00000090040012018F7CBD7D377E067FB58D
:106C2C001216D7BF011E90040012018F7CBD7D3758
:106C3C007E067F351216D7BFFF0A90040012022E73
:106C4C00000000009003FC12018F7CBD7D377E0696
:106C5C007F351216D7BFFF0C9003FC12022E0000DA
:106C6C000000801F9003FC12018FE4FCFD74C8FE31
:106C7C007442FF1216D7BF010A9003FC12022E00B9
:106C8C0000C84290040012018F9003F812118B90EF
:106C9C0003FC12018F12118E9003BC1201D6E53A3F
:076CAC002402FF12658C2297
:106CB300D253900007A982AA8374029001D3F0A350
:106CC300EAF0A3E9F0123AF8EF600A900007120223
:106CD3002E0000000090000712018FE4FCFD748079
:106CE300FE743FFF1216D7BFFF02802790000712E2
:106CF300018FE4FCFD7448FE7442FF1216D7BF01F6
:036D0300028010FB
:106D06009000071201CA9004041201D6C253800AE9
:106D160090040412022E0000B8419004041201CA25
:096D26009000341201D6A25322A0
:106D2F00D253900007A982AA8374029001D3F0A3D3
:106D3F00EAF0A3E9F0123AF8EF600A9000071202A6
:106D4F002E0000000090000712018F74CDFC14FD7F
:106D5F00FE743DFF1216D7BFFF0280279000071267
:106D6F00018FE4FCFD74A0FE7440FF1216D7BF0123
:036D7F000280107F
:106D82009000071201CA9004081201D6C253800A69
:106D920090040812022ECDCC4C3F9004081201CA76
:096DA2009000381201D6A2532220
:106DAB00D253900007A982AA8374029001D3F0A357
:106DBB00EAF0A3E9F0123AF8EF600A90000712022A
:106DCB002E0000000090000712018FE4FCFD7420E0
:106DDB00FE7441FF1216D7BFFF02802790000712E7
:106DEB00018FE4FCFD74FAFE7443FF1216D7BF014A
:036DFB0002801003
:106DFE009000071201CA90040C1201D6C253800AE9
:106E0E0090040C12022E0000E64290040C1201CAED
:096E1E0090003C1201D6A253229F
:106E27009000341201CA9000071201D6126CB39079
:106E370000381201CA9000071201D6126D2F900078
:0E6E47003C1201CA9000071201D6126DAB2258
:106E5500D2157E2A7F30123DE1740A9003AFF022ED
:096E6500900287E06003027B9AB1
:106E6E009002B21201CA9003D41201D690002C12D5
:106E7E00018F9003D41211829003DC1201D690037D
:106E8E00DC1201CA9003E01201D69003DC12018FCE
:106E9E00E4FFFEFCFD1216D7BFFF199003DFE0B230
:106EAE00E7FF9003DEE0FE9003DDE0FD9003DCE003
:106EBE00FC1201D69003D412018F9003D8121182C6
:106ECE009003E41201D69003E412018FE4FEFCFD60
:106EDE0074BFFF1216D7BFFF02803D9003E412016C
:106EEE008FE4FEFCFD743FFF1216D7BF010280280F
:106EFE009003E412018F7CBD7D377E067FB512169E
:106F0E00D7BF011E9003E412018F7CBD7D377E0634
:106F1E007F351216D7BFFF0A9003E412022E00002F
:056F2E00000030380EE8
:106F3300C2389003E41201CA9003E81201D6900309
:106F4300E412018F74CDFC14FDFE743EFF1212E5B2
:106F5300C004C005C006C0079003E812018F7C9AE5
:106F63007D997E197F3F1212E512118E9003E8126C
:106F730001D69003E812018F7CBD7D377E067FB575
:106F83001216D7BF011E9003E812018F7CBD7D3717
:106F93007E067F351216D7BFFF0A9003E812022E32
:106FA3000000000012646D9003AFE0B41403027A92
:106FB300305033E0B403030274595012E0605A14A2
:106FC30070030270A21470030272F8027B72E02451
:106FD300FC70030279511470030279D024FB70030F
:106FE300027A16027B72E0B41A03027B155018E092
:106FF30024EB7003027A41147003027A6B24FD7050
:1070030003027AD3027B72E024E57003027B4E24F1
:097013001C7003027B6D027B720C
:10701C009003D412018FE4FCFD74F0FE7441FF1256
:10702C0016D7BF01239003D412018FE4FCFD74200A
:10703C00FE7442FF1216D7BF0102800C9003CC12D3
:10704C00022E0000003F800A9003CC12022E00009A
:10705C00803F1268EFC23C9003E81201CA9003F023
:10706C001201D69003E81201CA9003EC1201D690DB
:10707C0003F012018FE4FFFEFCFD1216D7BFFF07D1
:10708C00E49003B1F0800674019003B1F09003AF6B
:10709C00E004F0027B779003E012018FE4FFFEFC2A
:1070AC00FD1216D7BFFF04C23A8002D23A9003EC0D
:1070BC0012018FE4FFFEFCFD1216D7BFFF028011F8
:1070CC009003E812018FE4FFFEFCFD1216D7BF01FE
:1070DC00269003EC12018FE4FCFDFEFF1216D7BFC5
:1070EC000102801F9003E812018FE4FFFEFCFD12E9
:0770FC0016D7BFFF02800C54
:107103009003B1E070069003AFE004F0203A2490BE
:1071130003AFE0B4011D90002C12018FE4FCFD7459
:10712300F0FE7441FF1216D7BF010280069003AF31
:10713300E004F0303C359003AFE0B4012E9003E857
:1071430012018F7C6F7D127E837FBA1216D7BF0127
:107153001A9003E812018F7C6F7D127E837F3A12AF
:1071630016D7BFFF069003AFE004F09003AEE060D4
:10717300030272939003AFE0B4010280030272939F
:10718300D23CE49003B1F09003E812018FE4FEFCDB
:08719300FDFF1216D7BFFF66D5
:10719B009003E812018F7C0A7DD77E237FBC1216E9
:1071AB00D7BF011A9003CC12018F74CDFC14FDFED6
:1071BB00743DFF12118E9003CC1201D680179003F1
:1071CB00CC12018F7CCD7DCC7E4C7F3E12118E90EC
:1071DB0003CC1201D69003CC12018FE4FCFDFE749C
:1071EB0040FF1216D7BF010280030272879003AFD4
:0671FB00E004F0027287BF
:107201009003E812018F9003F012018FE4FEFCFD60
:0E721100743FFF1212E51216D7BFFF02805C19
:10721F009003E812018F7C0A7DD77E237F3C1216E4
:10722F00D7BFFF1A9003CC12018F74CDFC14FDFE53
:10723F00743DFF1211859003CC1201D68017900375
:10724F00CC12018F7CCD7DCC7E4C7F3E1211859070
:10725F0003CC1201D69003CC12018FE4FCFDFEFF8C
:10726F001216D7BFFF069003AFE004F09003E812A9
:10727F0001CA9003F01201D69003AFE0B4010B12D4
:10728F0068EF80069003AEE014F09003E81201CA95
:10729F009003EC1201D6203A1F9003D412018F9065
:1072AF00002C12018F7CCD7DCC7E4C7F3E12118E37
:1072BF001216D7BFFF028028203A03027B77900374
:1072CF00D412018F90002C12018F7CCD7DCC7E4C7F
:1072DF007F3E1211851216D7BF01028003027B7702
:1072EF0074059003AFF0027B779003E012018FE4F7
:1072FF00FFFEFCFD1216D7BFFF04C23A8002D23A3E
:10730F009003DC12018FE4FEFCFD743FFF1216D7D1
:05731F00BF0102801B0C
:10732400D23E900191E030E4097B057A3179031271
:0B733400180074059003AFF0027B7797
:10733F009004F812022E000000009003E01201CA20
:10734F009004FC1201D61264179004FC12018F7C7A
:10735F00A17D0E7E6A7F3C1212E59003BC1201D60E
:10736F009003BC12018F7CCD7DCC7E4C7F3E1216DC
:10737F00D7BF010A9003BC12022ECDCC4C3E900316
:10738F00BC12018FE4FCFD74A0FE7443FF1212E5E2
:10739F0090050412018F12118E9003BC1201D6902A
:1073AF000191E030E41B9003BC12018F9003C012D7
:1073BF00018F7B057A31790E12180074F82581F54B
:1073CF0081203A149003BC12018F9003C01201CA9E
:1073DF001216D7BF01028015303A1E9003BC12015E
:1073EF008F9003C01201CA1216D7BFFF0C9003C0B3
:1073FF001201CA9003BC1201D67F0312658C900351
:10740F00C812018F9005041211829005001201D647
:10741F00900191E030E41B9004FC12018F90050065
:10742F0012018F7B057A31792512180074F82581A6
:10743F00F581E49003AEF09003B812022E00000025
:10744F00009003AFE004F0027B779003AEE004F00E
:10745F009003BBE004F070199003BAE004F07010D1
:10746F009003B9E004F070079003B8E004F0A3A311
:10747F00A39003B812018FE4FEFCFD741DFF1211DF
:07748F0034BF01030276F592
:1074960090050012018F9004F812118B9004F812D7
:1074A60001D69003B812018FE4FEFCFD741DFF1295
:0A74B6001134BF000280030276F5D6
:1074C000900419E090041BF012644B753A00E53A01
:0874D000B405004003027574CD
:1074D80090050C12022E0000000090050C12018F7E
:1074E80090041BE0232354FC2484F582E43404F53F
:1074F8008312118B90050C1201D612644B90050C67
:1075080012018F90041BE0232354FC2484F582E4A9
:107518003404F58312118B90050C1201D612644BBA
:1075280090050C12018F90041BE0232354FC248443
:10753800F582E43404F58312118B90050C1201D600
:1075480090050C12018F74ABFC14FDFE743EFF1203
:1075580012E5E53A232354FC2410F582E43405F5BA
:10756800831201D612645C053A0274CE900510129B
:1075780001CA90050C1201D6753A01E53AB4050026
:02758800506051
:10758A00203A2090050C12018FE53A232354FC245B
:10759A0010F582E43405F5831201CA1216D7BF0129
:1075AA00028021303A3690050C12018FE53A2323E6
:1075BA0054FC2410F582E43405F5831201CA12162C
:1075CA00D7BFFF18E53A232354FC2410F582E4348C
:1075DA0005F5831201CA90050C1201D6053A809965
:0A75EA00900191E020E4030276F521
:1075F400E4FE7F2F1285FFE4FE7F2F1285FFE4FE59
:107604007F091285FF753A00E53AB405004003028C
:0276140076AE50
:10761600E53A232354FC2410F582E43405F583125D
:10762600018F7CBD7D377E067FB51216D7BF01362A
:10763600E53A232354FC2410F582E43405F583123D
:10764600018F7CBD7D377E067F351216D7BFFF16AC
:10765600E53A232354FC2410F582E43405F583121D
:10766600022E00000000E53A232354FC2410F58284
:10767600E43405F58312018FE4C0E0C03A7B057A55
:1076860031793F12180074FA2581F581E53AB40480
:10769600005009E4FE7F091285FF8007E4FE7F0A99
:1076A6001285FF053A02760C90050C12018F7CBDFF
:1076B6007D377E067FB51216D7BF011E90050C12C8
:1076C600018F7CBD7D377E067F351216D7BFFF0A38
:1076D60090050C12022E0000000090050C12018F7E
:1076E6007B057A31794912180074FC2581F5819061
:1076F60003B812018FE4FCFDFE741DFF121134BFA6
:07770600010280030278BDBF
:10770D0090050C12018F7C6F7D127E837FBA12164D
:10771D00D7BF012590050C12018F7C6F7D127E83E2
:08772D007F3A1216D7BFFF11CD
:107735007B057A317958121800E49003AFF002788E
:01774500BD86
:107746009003E412018F9005001212E2C004C005F6
:10775600C006C00790050C12143E9004F812018F63
:1077660012118E9004F81201D61264DE203A14909B
:1077760004EC12018F90002C1201CA1216D7BFFF1B
:1077860002801D203A030278BD9004EC12018F900E
:10779600002C1201CA1216D7BF010280030278BD5F
:1077A6009004F412022E0000A04390050C12018FE3
:1077B6009003E4121182C004C005C006C0079004FD
:1077C600F41212E290050412018F12118E9003BC7E
:1077D6001201D69003BC1201CA9003C01201D61240
:1077E60063419004F812018F9004FC12143E900439
:1077F600F41201D690050C12018F9003E412118247
:10780600C004C005C006C0079004F41212E2900539
:107816000412018F12118E9003BC1201D61263411D
:107826009003BC12018F9003C012018F7433FEFCCB
:10783600FD743FFF1212E51216D7BFFF02801F909C
:1078460003BC12018F9003C012018F7466FCFD7495
:0E785600A6FE743FFF1212E51216D7BF011CEA
:107864009003C01201CA9003BC1201D6900191E0AA
:1078740030E4097B057A31797F121800203A1A9096
:10788400002C12018FE4FCFD74F0FE7441FF12160B
:10789400D7BF010280031264179003BC1201CA907F
:1078A40003FC1201D67F0312658C126E27741A90A2
:1078B40003AEF09003AFE004F09003AFE0B4030232
:1078C4008003027B77203A1F9003D412018F90002B
:1078D4002C12018F7CCD7DCC7E4C7F3E12118E12FA
:1078E40016D7BFFF028028203A03027B779003D487
:1078F40012018F90002C12018F7CCD7DCC7E4C7FA9
:0F7904003E1211851216D7BF01028003027B7756
:107913001264179003BC1201CA9003FC1201D690A3
:107923000191E030E4159003BC12018F7B057A319D
:10793300798A12180074FC2581F5817F0312658C06
:10794300E49003AEF09003AFE004F0027B77900382
:10795300AEE06054203A289003D412018F90002C9B
:107963001201CA1216D7BF013F9003E812018F7CA0
:10797300A67D9B7E447FBB1216D7BF0102802930B0
:107983003A429003D412018F90002C1201CA1216AE
:10799300D7BFFF149003E812018F7CA67D9B7E4422
:0879A3007F3B1216D7BFFF1C49
:1079AB00126E279003AFE004F0900191E030E412E7
:1079BB007B057A317997121800027B779003AEE042
:1079CB0014F0027B77126E27203E03027B77900325
:1079DB00DC12018F7CCD7DCC7E4C7F3D1216D7BF48
:0779EB00FF028003027B771D
:1079F200C23E900191E020E403027B779003DC1207
:107A0200018F7B057A3179AD12180074FC2581F55E
:107A120081027B77900287E07008E49003AFF00266
:027A22007B7770
:107A2400D2157E2A7FB3123DE1027B77D238741AD5
:107A34009003AEF09003AFE004F0027B779003AEC6
:087A4400E014F06003027B77FF
:107A4C00741AF090050812022E000000007B057AD3
:107A5C003179C21218009003AFE004F0027B7790EA
:107A6C0003E812018F90050812118B900508120182
:107A7C00D69003AEE014FBF0E4C0E0C0037B057AC3
:107A8C003179CC121800158115819003AEE060039A
:037A9C00027B77F3
:107A9F0090050812018F7CD97D897E1D7F3D1212C2
:107AAF00E59005081201D690050812018F7B057A23
:107ABF003179DC12180074FC2581F581E49003AF55
:107ACF00F0027B779003D012018F9003CC12018FBD
:107ADF009003C812018F7B057A3179E71218007471
:107AEF00F42581F5819003CC1201CA9003BC1201D9
:107AFF00D67F0312658C741A9003AEF0E4F09003F6
:107B0F00AFE004F080621264DE9003AEE004F09008
:107B1F0004EC12018F90002C1201CA1216D7BF016C
:017B2F00470E
:107B30009003D01201CA9003BC1201D67F031265D4
:107B40008CE49003AEF09003AFE004F0802912645F
:0C7B5000DE9003AEE004F0B41A00401B0D
:107B5C007B057A32790B12180074FF9003AFF0801A
:107B6C000A1264DE8005E49003AFF09003AFE0B43A
:107B7C000500400E9003AFE0B40A0050057F0112DF
:0F7B8C006AA99003D41201CA9003D81201D6221D
:107B9B00E4C0E0C0787B057A327924121800158195
:107BAB001581753A00E53AB578005023E53A244340
:107BBB00F582E43405F583E0FBE4C0E0C0037B050C
:107BCB007A32793112180015811581053A80D6E485
:077BDB00FE7F0A1285FF2264
:0B7BE200753B04E53BB40601D3503EA8
:107BED00E53B245CF582E43403F583E0F53DB4090F
:107BFD0001D35007E4FE7F301285FFE4C0E0C03DA5
:107C0D007B057A30797C12180015811581E53B646E
:0F7C1D00066007E4FE7F2D1285FF053B80BA222B
:0B7C2C00753B03E53BB40001D3403E74
:107C3700E53B245BF582E43403F583E0F53DB409C5
:107C470001D35007E4FE7F301285FFE4C0E0C03D5A
:107C57007B057A30797C12180015811581E53B6424
:0F7C6700016007E4FE7F3A1285FF153B80BA22C9
:107C760090000BA982AA8374029001D3F0A3EAF0C4
:107C8600A3E9F0123BC0EF600A7B057A3279351220
:037C9600180022B1
:107C990090000B1201CA9000071201D6900007123A
:107CA90001CA1236BEC004C005C006C0077B057AEA
:0D7CB90032793B12180074FC2581F5812200
:107CC600E5417005E4F53B800DE541B40105753BE2
:107CD600068003753B0C754106753A00E53AB541D9
:067CE600004003027D7066
:107CEC00E53B253A75F00CA42494F582E43400F5B8
:107CFC00831201CA90000B1201D6127C76E4FE7F2F
:107D0C00091285FFE53B253A75F00CA42498F58201
:107D1C00E43400F5831201CA90000B1201D6127CD8
:107D2C0076E4FE7F091285FFE53B253A75F00CA43D
:107D3C00249CF582E43400F5831201CA90000B12E6
:107D4C0001D6127C76E54124FFB53A01D34009E413
:107D5C00FE7F091285FF8007E4FE7F0A1285FF056E
:057D6C003A027CE22256
:067D71002045030282A779
:087D7700C2452046030282A769
:037D7F00303F0290
:107D8200C23F9001CC1201CA9001C41201D69005E3
:107D92003AE0B40601D3501790053AE0FBE4C0E0A4
:107DA200C0037B057A32793E121800158115819045
:107DB200053AE0B403030281BC5012E0602614705D
:107DC200030281621470030281B6028286E024FCFF
:107DD20070030281DA1470030281DA1470030282E2
:047DE2001B02828678
:107DE600127BE2E4FE7F091285FF127C2CE4FE7F03
:0D7DF600091285FF120036900357E0701F40
:107E0300900353E0FB90035BF03395E0C0E0C003C5
:107E13007B057A32794312180015811581801790FA
:107E23000357E0FBE4C0E0C0037B057A32794712D5
:107E330018001581158190002C1201CA1236BEC09C
:107E430004C005C006C0077B057A32794E121800BC
:107E530074FC2581F581900287E070229002B212B2
:107E630001CA1236BEC004C005C006C0077B057A2E
:107E730032795412180074FC2581F5818017900221
:107E830087E0FBE4C0E0C0037B057A327947121830
:107E930000158115819004EC1201CA1236BEC0048C
:107EA300C005C006C0077B057A32795412180074E6
:107EB300FC2581F5811200369003E81201CA1236BF
:107EC300BEC004C005C006C0079003E41201CA1275
:107ED30036BEC004C005C006C0077B057A32795A96
:107EE30012180074F82581F5819004001201CA125A
:107EF30036BEC004C005C006C0079003FC1201CA09
:107F03001236BEC004C005C006C0079003F81201B4
:107F1300CA1236BEC004C005C006C0077B057A324C
:107F2300796512180074F42581F5811200369003E7
:107F3300AEE0FBE4C0E0C0039003AFE0FBE4C0E0CD
:107F4300C003900066E0C0E0A3E0C0E09003C81265
:107F530001CA1236BEC004C005C006C0077B057A3D
:107F630032797512180074F62581F5811200369066
:107F73000366E0FBE4C0E0C003900064E0C0E0A35C
:107F8300E0C0E09003C41201CA1236BEC004C005AB
:107F9300C006C0077B057A32798412180074F8256D
:107FA30081F581900368E07019900367E0FBE4C0FA
:107FB300E0C0037B057A327992121800158115818E
:107FC3008017900367E0FBE4C0E0C0037B057A32CF
:107FD300794712180015811581120036900384E049
:107FE300543F70229003961201CA1236BEC004C0D9
:107FF30005C006C0077B057A32795412180074FC59
:068003002581F5818039A2
:10800900900384E0540F6018E0540FFBE4C0E0C013
:10801900037B057A32794712180015811581801979
:10802900900384E05430FBE4C0E0C0037B057A325E
:10803900794712180015811581900384E054CF7097
:10804900229003921201CA1236BEC004C005C006AE
:10805900C0077B057A32795412180074FC2581F522
:03806900818039DA
:10806C00900384E0540F6018E0540FFBE4C0E0C0B0
:10807C00037B057A32794712180015811581801916
:10808C00900384E054C0FBE4C0E0C0037B057A326B
:10809C0079471218001581158190018EE0701790A8
:1080AC0001CC12018F7B057A32799812180074FC7E
:1080BC002581F581805290018EE064016004E0B46A
:0280CC0002466A
:1080CE0090018EE0B401179001CC12018F7B057ADE
:1080DE003279A012180074FC2581F581801590016B
:1080EE00CC12018F7B057A3279A912180074FC2507
:1080FE0081F58190018FE07007E490018EF080068B
:09810E0090018FE014F03010190B
:10811700C210900190E0FBE4C0E0C0037B057A3217
:1081270079B212180015811581120036900191E07D
:1081370030E127900367E0FBE4C0E0C003900366EB
:10814700E0FBE4C0E0C003C0E0C02F7B057A3279D2
:10815700C312180074FA2581F581229004F01201E8
:10816700CA1236BEC004C005C006C00790040C1270
:1081770001CA1236BEC004C005C006C00790040875
:108187001201CA1236BEC004C005C006C00790045B
:10819700041201CA1236BEC004C005C006C0077B60
:1081A700057A3279D012180074F02581F58122D230
:1081B7004F123DF422900014E0FBE4C0E0C0037BC3
:1081C700057A2F795B12180015811581E4F54112A4
:0A81D7007CC62290053AE0B4041CB7
:1081E100900015E0FBE4C0E0C0037B057A2F795BCA
:0C81F10012180015811581754101801ADB
:1081FD00900016E0FBE4C0E0C0037B057A2F795BAD
:10820D0012180015811581754102127CC622753A2E
:08821D0000E53AB406005060D0
:10822500E53A240DF582E43402F583E0FBE4C0E091
:10823500C003E53A2407F582E43402F583E0FBE464
:10824500C0E0C003E53A2401F582E43402F583E099
:10825500FBE4C0E0C0037B057A3279E312180074B1
:10826500FA2581F581E53AB405005009E4FE7F0958
:108275001285FF8007E4FE7F0A1285FF053A809983
:108285002290053AE0B40601D3501790053AE0FB79
:10829500E4C0E0C0037B057A3279F212180015813B
:0382A5001581221E
:1082A800E4F54B754C3C74029001D0F0A37401F0D6
:1082B800A37492F0753A00E53AB4040050071237F7
:0E82C800B9053A80F2E49001A1F012291722C4
:0B82D600E4FE7F01123C881237B92241
:0B82E100E4FE7F01123C8812382722C7
:1082EC00900000E0B40401D34005E4900000F07469
:1082FC0004900000F0E0902E6293F59D900000E059
:07830C00902E5C93F59E2208
:108313001282D690001AE0B40401D340067404908C
:0F832300001AF090001AE0900000F0753D05225E
